:100000000C9462000C948A000C948A000C948A0070
:100010000C948A000C948A000C948A000C948A0038
:100020000C948A000C948A000C948A000C948A0028
:100030000C948A000C948A000C948A000C948A0018
:100040000C9467080C948A000C94C2090C94090A59
:100050000C948A000C948A000C948A000C948A00F8
:100060000C948A000C948A000000000024002700F1
:100070002A0000000000250028002B0000000000DE
:1000800023002600290004040404040404040202DA
:100090000202020203030303030301020408102007
:1000A0004080010204081020010204081020000012
:1000B0000007000201000003040600000000000029
:1000C0000000800B11241FBECFEFD8E0DEBFCDBFF4
:1000D00015E0A0E0B1E0E4EBFBE102C005900D9279
:1000E000A432B107D9F715E0A4E2B5E001C01D9232
:1000F000A43DB107E1F710E0C4ECD0E004C02297C2
:10010000FE010E94D40DC23CD107C9F70E945808D5
:100110000C94D80D0C940000EF92FF920F931F9354
:100120007B018C0120E030E040E05FE40E940804A5
:1001300088238CF0C801B70120E030E040E05FE4A4
:100140000E9404020E9438049B01AC012050304000
:100150004040504806C0C801B7010E9438049B01C6
:10016000AC01B901CA011F910F91FF90EF90089562
:10017000A0E0B0E0EEEBF0E00C949B0DDC012B0175
:10018000FA019C91923008F439C1EB0188818230E8
:1001900008F433C1943069F4843009F02FC111960A
:1001A0009C9111978981981709F428C1A8E3B2E0BE
:1001B00025C1843009F421C18230A9F4923009F0BC
:1001C0001DC19A01AD0188E0EA010990AE01E90183
:1001D00009929E018150C1F7E201898111969C919B
:1001E0008923818308C1923009F407C112962D90AA
:1001F0003C901397EB018A819B811496AD90BD9042
:10020000CD90DC901797EC80FD800E811F819101CD
:10021000281B390BB90137FF04C066277727621BFB
:10022000730B603271050CF061C0121613066CF589
:1002300037014801062E04C09694879477946794FA
:100240000A94D2F721E030E040E050E004C0220FF1
:10025000331F441F551F6A95D2F72150304040404C
:1002600050402E213F2140235123211531054105C6
:10027000510521F021E030E040E050E079018A01B1
:10028000E628F728082919293CC0232BD1F1260E8E
:10029000371E35014601062E04C096948794779444
:1002A00067940A94D2F721E030E040E050E004C0C7
:1002B000220F331F441F551F6A95D2F7215030403B
:1002C000404050402A213B214C215D212115310520
:1002D0004105510521F021E030E040E050E05901B6
:1002E0006A01A628B728C828D9280BC0821593050B
:1002F0002CF01C01AA24BB24650103C0EE24FF24BA
:10030000870111969C91D20111968C91981709F44E
:1003100045C0992339F0A80197012A193B094C09D6
:100320005D0906C0A60195012E193F09400B510B2E
:1003300057FD08C01182338222822483358346838D
:1003400057831DC081E081833382228288279927C9
:10035000DC01821B930BA40BB50B84839583A683CE
:10036000B7830DC0220F331F441F551F24833583CD
:10037000468357838281938101979383828324816B
:10038000358146815781DA01C9010197A109B10977
:100390008F5F9F4FAF4FBF4328F30BC091833382D2
:1003A0002282EA0CFB1C0C1D1D1DE482F5820683D3
:1003B000178383E08083248135814681578157FFED
:1003C0001AC0C901AA2797FDA095BA2F8170907015
:1003D000A070B0705695479537952795822B932B33
:1003E000A42BB52B84839583A683B78382819381C5
:1003F000019693838283DF0101C0D201CD01CDB785
:10040000DEB7E2E10C94B70DA0E2B0E0EAE0F2E082
:100410000C94A70D69837A838B839C832D833E8301
:100420004F835887E9E0EE2EF12CEC0EFD1ECE0135
:100430000196B7010E9429068E010F5E1F4FCE0163
:100440000596B8010E9429068A8991E089278A8B3E
:10045000C701B801AE01475E5F4F0E94B8000E941D
:100460005405A096E6E00C94C30DA0E2B0E0EBE3E7
:10047000F2E00C94A70D69837A838B839C832D8390
:100480003E834F835887F9E0EF2EF12CEC0EFD1ED2
:10049000CE010196B7010E9429068E010F5E1F4F03
:1004A000CE010596B8010E942906C701B801AE0128
:1004B000475E5F4F0E94B8000E945405A096E6E098
:1004C0000C94C30DA0E2B0E0E8E6F2E00C949B0DC2
:1004D00069837A838B839C832D833E834F835887E4
:1004E000CE010196BE01675F7F4F0E942906CE01B3
:1004F0000596BE016F5E7F4F0E9429069985923056
:1005000088F089898230C8F0943019F4823051F42F
:1005100004C0843029F4923081F488E392E0C6C0AC
:10052000923049F420E09A858A89981321E02A873D
:10053000CE010996BBC0823049F420E09A858A89B1
:10054000981321E02A8BCE014196B0C02D843E84C1
:100550004F8458886D887E888F88988CEE24FF247D
:100560008701AA24BB24650140E050E060E070E010
:10057000E0E0F0E0C10181709070892BE9F0E60CB9
:10058000F71C081D191D9A01AB012A0D3B1D4C1DBE
:100590005D1D80E090E0A0E0B0E0E614F7040805FF
:1005A000190520F481E090E0A0E0B0E0BA01A901D3
:1005B000480F591F6A1F7B1FAA0CBB1CCC1CDD1CDB
:1005C00097FE08C081E090E0A0E0B0E0A82AB92A38
:1005D000CA2ADB2A3196E032F10549F0660C771C15
:1005E000881C991C5694479437942794C3CFFA8556
:1005F000EA892B893C898B859C85280F391F2E5FC2
:100600003F4F17C0CA0181709070892B61F0169519
:100610000795F794E79480E090E0A0E0B0E8E82A3E
:10062000F92A0A2B1B2B76956795579547952F5FCF
:100630003F4F77FDE7CF0CC0440F551F661F771F54
:1006400017FD4160EE0CFF1C001F111F21503040B0
:10065000403090E0590790E0690790E4790760F333
:100660002B8F3C8FDB01CA018F779070A070B07028
:1006700080349105A105B10561F447FD0AC0E1147C
:10068000F1040105110529F0405C5F4F6F4F7F4F6A
:1006900040781A8EFE1711F081E08A8F4D8F5E8FA1
:1006A0006F8F78A383E0898FCE0149960E9454050D
:1006B000A096E2E10C94B70DA8E1B0E0E2E6F3E029
:1006C0000C94A30D69837A838B839C832D833E8353
:1006D0004F835887B9E0EB2EF12CEC0EFD1ECE01B6
:1006E0000196B7010E9429068E010F5E1F4FCE01B1
:1006F0000596B8010E9429062985223008F47EC09B
:100700003989323010F4B8017CC08A859A898927EA
:100710008A87243011F0223031F4231709F06EC09B
:1007200068E372E06EC0343039F41D861E861F8681
:10073000188A1C861B8604C0323021F484E0898725
:10074000B7015FC02B853C858B899C89281B390BA1
:100750003C872B87ED84FE840F851889AD88BE8881
:10076000CF88D88CEA14FB040C051D0540F4EE0C70
:10077000FF1C001F111F215030403C872B8720E0B9
:1007800030E040E050E080E090E0A0E0B0E460E0E5
:1007900070E0EA14FB040C051D0540F0282B392BF2
:1007A0004A2B5B2BEA18FB080C091D09B695A79587
:1007B00097958795EE0CFF1C001F111F6F5F7F4FF1
:1007C0006F31710531F7DA01C9018F779070A07030
:1007D000B07080349105A105B10561F427FD0AC010
:1007E000E114F1040105110529F0205C3F4F4F4F42
:1007F0005F4F20782D873E874F87588BBE01675FFC
:100800007F4FCB010E9454056896EAE00C94BF0D1F
:10081000A8E1B0E0EEE0F4E00C94A70D69837A83E0
:100820008B839C832D833E834F83588789E0E82EFA
:10083000F12CEC0EFD1ECE010196B7010E94290697
:100840008E010F5E1F4FCE010596B8010E9429064A
:100850008985823040F08989823028F0C701B8014B
:100860000E94A10601C08FEF6896E6E00C94C30DCC
:10087000ACE0B0E0EEE3F4E00C94AB0D69837A8376
:100880008B839C83CE010196BE016B5F7F4F0E94DC
:1008900029068D81823061F1823050F1843021F45B
:1008A0008E81882351F12EC02F81388537FD20C0DD
:1008B0006E812F3131051CF06623F9F023C08EE1E3
:1008C00090E0821B930B29853A854B855C8504C09B
:1008D00056954795379527958A95D2F76623B1F0B7
:1008E00050954095309521953F4F4F4F5F4F0EC02B
:1008F00020E030E040E050E009C02FEF3FEF4FEF45
:100900005FE704C020E030E040E050E8B901CA01F0
:100910002C96E2E00C94C70DA8E0B0E0E2E9F4E028
:100920000C94A30D7B018C01611571058105910566
:1009300019F482E0898360C083E089838EE1C82E48
:10094000D12CDC82CB82ED82FE820F831887C80116
:10095000B7010E940505FC013197F7FF3BC0222734
:1009600033272E1B3F0B57016801022E04C0D6947B
:10097000C794B794A7940A94D2F740E050E060E09F
:1009800070E081E090E0A0E0B0E004C0880F991F23
:10099000AA1FBB1F2A95D2F70197A109B1098E2181
:1009A0009F21A023B1230097A105B10521F041E0CB
:1009B00050E060E070E04A295B296C297D294D8375
:1009C0005E836F8378878EE190E08E1B9F0B9C8304
:1009D0008B8312C0309781F00E2E04C0EE0CFF1CEA
:1009E000001F111F0A94D2F7ED82FE820F83188731
:1009F000CE1ADF0ADC82CB821A82CE0101960E94D7
:100A000054052896EAE00C94BF0DEF92FF920F93E5
:100A10001F937B018C0180E0E81680E0F80681E0FE
:100A2000080780E0180788F48FEFE816F104010545
:100A3000110531F028F088E090E0A0E0B0E017C0A8
:100A400080E090E0A0E0B0E012C080E0E81680E036
:100A5000F80680E0080781E0180728F088E190E0B8
:100A6000A0E0B0E004C080E190E0A0E0B0E020E2CF
:100A700030E040E050E0281B390B4A0B5B0B04C010
:100A800016950795F794E7948A95D2F7F701E05CFD
:100A9000FD4F8081281B310941095109C9011F916E
:100AA0000F91FF90EF900895DF92EF92FF920F93D6
:100AB0001F93FC01E480F58006811781D18080813D
:100AC000823048F480E090E0A0E1B0E0E82AF92A22
:100AD0000A2B1B2BA5C0843009F49FC0823021F45F
:100AE000EE24FF24870105C0E114F104010511057E
:100AF00019F4E0E0F0E096C0628173819FEF623804
:100B000079070CF05BC022E83FEF261B370B2A3138
:100B100031052CF020E030E040E050E02AC0B80180
:100B2000A701022E04C076956795579547950A94BC
:100B3000D2F781E090E0A0E0B0E004C0880F991FF8
:100B4000AA1FBB1F2A95D2F70197A109B1098E21CF
:100B50009F21A023B1230097A105B10521F081E0D9
:100B600090E0A0E0B0E09A01AB01282B392B4A2B92
:100B70005B2BDA01C9018F779070A070B070803460
:100B80009105A105B10539F427FF09C0205C3F4F4D
:100B90004F4F5F4F04C0215C3F4F4F4F5F4FE0E02E
:100BA000F0E02030A0E03A07A0E04A07A0E45A07AE
:100BB00010F0E1E0F0E079018A0127C060387105AA
:100BC00064F5FB01E158FF4FD801C7018F779070A2
:100BD000A070B07080349105A105B10539F4E7FE2D
:100BE0000DC080E490E0A0E0B0E004C08FE390E0AE
:100BF000A0E0B0E0E80EF91E0A1F1B1F17FF05C09A
:100C000016950795F794E794319687E01695079522
:100C1000F794E7948A95D1F705C0EE24FF24870165
:100C2000EFEFF0E06E2F679566276795902F9F771F
:100C3000D794DD24D7948E2F8695492F462B582F95
:100C40005D29B701CA011F910F91FF90EF90DF90CE
:100C50000895FC01DB01408151812281622F6F7771
:100C600070E0221F2227221F9381892F880F822B59
:100C7000282F30E0991F9927991F11969C9311975F
:100C800021153105A9F5411551056105710511F4CD
:100C900082E037C082E89FEF13969C938E93129761
:100CA0009A01AB0167E0220F331F441F551F6A955D
:100CB000D1F783E08C930DC0220F331F441F551FC3
:100CC00012968D919C911397019713969C938E93F6
:100CD0001297203080E0380780E0480780E458070A
:100CE00058F314962D933D934D935C931797089565
:100CF0002F3F310579F4411551056105710519F44E
:100D000084E08C93089564FF03C081E08C9312C04B
:100D10001C9210C02F57304013963C932E9312977D
:100D200083E08C9387E0440F551F661F771F8A95D9
:100D3000D1F7706414964D935D936D937C931797E0
:100D400008951F93DC01FB019C91923008F447C089
:100D50008081823008F443C0943051F411961C9184
:100D6000843099F58181682F70E0611B71093FC063
:100D7000843021F0923031F48230B9F181818823BE
:100D800089F12DC011961C9111978230F1F081816B
:100D90001817D9F412962D913C9113978281938163
:100DA0008217930794F028173907BCF014968D9199
:100DB0009D910D90BC91A02D248135814681578154
:100DC000281739074A075B0718F4112341F00AC0B6
:100DD00082179307A407B50740F4112319F061E0C7
:100DE00070E005C06FEF7FEF02C060E070E0CB0104
:100DF0001F910895AF92BF92CF92DF92EF92FF9230
:100E00000F931F93CF93DF9385EB95E00E94D80A51
:100E1000181619060CF01AC185EB95E00E94090B13
:100E200081339105A1F08233910519F4C1E0D0E03E
:100E300010C08333910519F4C2E0D0E00AC08433B6
:100E4000910509F4F8C0C59709F0EEC0E2C0C0E012
:100E5000D0E08CE990E0C89F5001C99FB00CD89FAA
:100E6000B00C112440E4C42E43E0D42ECA0CDB1C89
:100E7000F6010081118185EB95E060E071E00E9450
:100E80001D0D61E070E0601B710B85EB95E04AE0A1
:100E900050E00E94A10C8EE490E0C89FF001C99F31
:100EA000F00DD89FF00D1124EE0FFF1FEE5BFC4FED
:100EB0006081718180E090E00E948C0421E339E040
:100EC00047E75EE30E9462029B01AC0160E074E2CE
:100ED00084E799E40E945C030E948C007B018C01F2
:100EE00085EB95E062E171E00E941D0D85EB95E0D8
:100EF000B7014AE050E00E94A10C87E290E0C89F51
:100F0000F001C99FF00DD89FF00D1124EE0FFF1FC7
:100F1000EE0FFF1FEC5BFC4F0081118185EB95E02C
:100F20006AE271E00E941D0D85EB95E0B8014AE090
:100F300050E00E94A10CF6010681178185EB95E037
:100F400060E571E00E941D0D85EB95E0B8014AE077
:100F500050E00E94A10C98E4E92E93E0F92EEA0CEF
:100F6000FB1C04E010E089E1C82ED12CF7012081A0
:100F7000318100FD1DC02C9DE0012D9DD00D3C9DBB
:100F8000D00D112411C08DE061E00E941A098AE0A1
:100F900090E00E94AF088DE060E00E941A098AE0AC
:100FA00090E00E94AF086997CA31D10564F709C083
:100FB0002C9DC0012D9D900D3C9D900D11240E94F3
:100FC000AF080F5F1F4F82E090E0E80EF91E0E346D
:100FD000110561F63BC082E00E946E09BC0185EB01
:100FE00095E04AE050E00E94FE0C81E090E00E9413
:100FF000AF08F1CF88E00E946E09BC0185EB95E057
:101000004AE050E00E94FE0C81E090E00E94AF08B0
:10101000F1CF85EB95E067E771E00E94200D87E056
:1010200061E00E941A09E6CF85EB95E064E971E082
:101030000E94200D0BC085EB95E061EA71E00E94F3
:10104000200D8CE061E00E941A09C5CFDF91CF919D
:101050001F910F91FF90EF90DF90CF90BF90AF90D6
:1010600008950F931F938DE061E00E94F4088CE0D7
:1010700061E00E94F40887E061E00E94F40888E0E3
:1010800060E00E94F40882E060E00E94F40805EB52
:1010900015E0C80140E855E260E070E00E94520AA5
:1010A000C8016FEB71E00E94200D1F910F91089510
:1010B000CF93DF930E94B9080E943108C6EFD9E0B0
:1010C0000E94FA062097E1F30E94F609F9CF1F92D9
:1010D0000F920FB60F9211242F933F938F939F93EC
:1010E000AF93BF938091280590912905A0912A057F
:1010F000B0912B0530912C050196A11DB11D232F18
:101100002D5F2D3720F02D570196A11DB11D209385
:101110002C058093280590932905A0932A05B09368
:101120002B058091240590912505A0912605B0916D
:1011300027050196A11DB11D8093240590932505D7
:10114000A0932605B0932705BF91AF919F918F91F2
:101150003F912F910F900FBE0F901F901895019700
:1011600039F0880F991F880F991F02970197F1F79F
:101170000895789484B5826084BD84B5816084BD0F
:1011800085B5826085BD85B5816085BDEEE6F0E000
:10119000808181608083E1E8F0E01082808182605C
:1011A0008083808181608083E0E8F0E080818160DD
:1011B0008083E1EBF0E0808184608083E0EBF0E00D
:1011C000808181608083EAE7F0E0808184608083B1
:1011D000808182608083808181608083808180685B
:1011E00080831092C1000895482F50E0CA018656AE
:1011F0009F4FFC0124914A575F4FFA018491882345
:10120000C1F0E82FF0E0EE0FFF1FE859FF4FA59166
:10121000B491662341F49FB7F8948C912095822372
:101220008C939FBF08959FB7F8948C91822B8C93D9
:101230009FBF0895482F50E0CA0182559F4FFC017F
:101240002491CA0186569F4FFC0194914A575F4FE3
:10125000FA013491332309F440C0222351F12330A1
:1012600071F0243028F42130A1F0223011F514C09F
:101270002630B1F02730C1F02430D9F404C0809179
:1012800080008F7703C0809180008F7D80938000E5
:1012900010C084B58F7702C084B58F7D84BD09C02E
:1012A0008091B0008F7703C08091B0008F7D8093D4
:1012B000B000E32FF0E0EE0FFF1FEE58FF4FA591B7
:1012C000B4912FB7F894662321F48C9190958923DB
:1012D00002C08C91892B8C932FBF0895682F70E0EA
:1012E000CB0182559F4FFC012491CB0186569F4F25
:1012F000FC0144916A577F4FFB019491992319F4A3
:1013000020E030E03CC0222351F1233071F0243042
:1013100028F42130A1F0223011F514C02630B1F0AC
:101320002730C1F02430D9F404C0809180008F7739
:1013300003C0809180008F7D8093800010C084B5B1
:101340008F7702C084B58F7D84BD09C08091B000C5
:101350008F7703C08091B0008F7D8093B000892F7C
:1013600090E0880F991F84589F4FFC01A591B4917C
:101370008C9120E030E0842311F021E030E0C901BD
:10138000089508951F920F920FB60F9211242F9374
:101390003F934F938F939F93EF93FF934091C6009A
:1013A00020916D0530916E052F5F3F4F2F73307088
:1013B00080916F05909170052817390759F0E091D9
:1013C0006D05F0916E05E35DFA4F408330936E0535
:1013D00020936D05FF91EF919F918F914F913F91D8
:1013E0002F910F900FBE0F901F901895E091C1059F
:1013F000F091C205E05CFF4F819191912081318194
:10140000821B930B8F739070892B11F00E94C1097E
:1014100008951F920F920FB60F9211242F933F93AE
:101420004F935F936F937F938F939F93AF93BF93EC
:10143000EF93FF932091B1053091B2058091B305F0
:101440009091B4052817390731F48091C1008F7D40
:101450008093C10016C0E091B305F091B405EF5838
:10146000FA4F40818091B3059091B405019660E4F4
:1014700070E00E94520D9093B4058093B3054093A1
:10148000C600FF91EF91BF91AF919F918F917F9196
:101490006F915F914F913F912F910F900FBE0F90E1
:1014A0001F901895AF92BF92DF92EF92FF920F9329
:1014B0001F93CF93DF93EC017A018B01DD24403041
:1014C00081EE580780E0680780E0780711F0DD249E
:1014D000D39491E0A92EB12CEC89FD89DD2069F02F
:1014E000C5010E8C02C0880F991F0A94E2F7808311
:1014F00060E079E08DE390E005C0108260E874E878
:101500008EE190E0A80197010E94650D21503040C6
:1015100040405040569547953795279580E12030BB
:10152000380720F0DD2011F0DD24D6CFE889F989D5
:101530003083EA89FB892083EE89FF89408121E09D
:1015400030E0C9010A8C02C0880F991F0A94E2F7A3
:10155000482B4083EE89FF894081C9010B8C02C072
:10156000880F991F0A94E2F7482B4083EE89FF8980
:101570004081C9010C8C02C0880F991F0A94E2F7C0
:10158000482B4083EE89FF8980810D8C02C0220F99
:10159000331F0A94E2F7209528232083DF91CF910F
:1015A0001F910F91FF90EF90DF90BF90AF90089543
:1015B000DC011C96ED91FC911D97E05CFF4F2191A1
:1015C000319180819181281B390B2F733070C901B3
:1015D0000895DC011C96ED91FC911D97E05CFF4F96
:1015E00020813181E054F040DF01AE5BBF4F8D912F
:1015F0009C9111972817390719F42FEF3FEF07C077
:101600008D919C91E80FF91F8081282F30E0C9014E
:101610000895DC011C96ED91FC911D97E05CFF4F55
:1016200020813181E054F040DF01AE5BBF4F8D91EE
:101630009C9111972817390719F42FEF3FEF10C02D
:101640008D919C911197E80FF91F20818D919C91AC
:10165000119701968F73907011969C938E9330E042
:10166000C9010895FC0186859785DC01A05CBF4F08
:10167000FC01EE5BFF4F2D913C9111978081918190
:1016800028173907C1F70895CF93DF93EC01462F50
:10169000EE85FF85E05CFF4F80819181E054F04052
:1016A000019660E470E00E94520D9C01DF01AE5B88
:1016B000BF4F8D919C91119728173907D1F3E05CAA
:1016C000FF4F80819181E054F040E80FF91F408383
:1016D000EE85FF85E05CFF4F31832083EE89FF8933
:1016E000208181E090E00D8C02C0880F991F0A9440
:1016F000E2F7282B208381E090E0DF91CF910895DD
:101700001092B8051092B70588EE93E0A0E0B0E023
:101710008093B9059093BA05A093BB05B093BC051F
:1017200088E195E09093B6058093B5058DE295E04C
:101730009093C2058093C10581E795E09093C4051D
:101740008093C30585EC90E09093C6058093C50512
:1017500084EC90E09093C8058093C70580EC90E0FE
:101760009093CA058093C90581EC90E09093CC05D5
:101770008093CB0586EC90E09093CE058093CD05C9
:1017800084E08093CF0583E08093D00587E0809349
:10179000D10585E08093D20581E08093D30508953B
:1017A000CF92DF92EF92FF920F931F93CF93DF932D
:1017B0007C016B018A01C0E0D0E00FC0D6016D91C1
:1017C0006D01D701ED91FC910190F081E02DC701F1
:1017D0000995C80FD91F015010400115110571F767
:1017E000CE01DF91CF911F910F91FF90EF90DF908D
:1017F000CF900895EF92FF920F931F938C01DC011D
:10180000ED91FC910190F081E02D6DE009957C0156
:10181000D801ED91FC910190F081E02DC8016AE0C2
:1018200009959C012E0D3F1DC9011F910F91FF903D
:10183000EF900895CF93DF93DB010D900020E9F73F
:101840001197A61BB70BEC01E881F9810280F381A7
:10185000E02DAD010995DF91CF9108954F925F92F0
:101860007F928F929F92AF92BF92CF92DF92EF9230
:10187000FF920F931F93DF93CF93CDB7DEB7A1975E
:101880000FB6F894DEBF0FBECDBF2C01742ECB0176
:10189000223008F42AE019A231E2C32ED12CCC0E5A
:1018A000DD1E822E9924AA24BB24672D752FA50145
:1018B00094010E94650D79018A01C801B701A50153
:1018C00094010E94330D472D461B0894C108D1088E
:1018D0004A3014F4405D01C0495CF6014083E114D4
:1018E000F1040105110521F07E2C5F2DC801DDCF2B
:1018F000C201B6010E941A0CA1960FB6F894DEBF81
:101900000FBECDBFCF91DF911F910F91FF90EF9050
:10191000DF90CF90BF90AF909F908F907F905F901F
:101920004F900895DC012115310541F4ED91FC91B2
:101930000190F081E02D642F099508950E942E0CEE
:101940000895CF92DF92EF92FF920F931F936C0155
:101950007B019A0100E010E0B801A7010E94920CFF
:101960008C01C6010E94FA0B080F191FC8011F91B4
:101970000F91FF90EF90DF90CF900895CF92DF927C
:10198000EF92FF920F931F93CF93DF93EC016A01C5
:101990007B012115310541F4E881F9810190F08145
:1019A000E02D642F09951FC02A303105D1F477FF4F
:1019B00017C0E881F9810190F081E02D6DE2099571
:1019C0008C0144275527BA014C195D096E097F091E
:1019D000CE012AE00E942E0C9801280F391F04C066
:1019E0002AE00E942E0C9C01C901DF91CF911F912A
:1019F0000F91FF90EF90DF90CF900895CF92DF92FC
:101A0000EF92FF920F931F936C017B019A010027C5
:101A1000F7FC0095102FB801A7010E94BE0C8C01A5
:101A2000C6010E94FA0B080F191FC8011F910F91E0
:101A3000FF90EF90DF90CF9008950E941A0C0895C8
:101A4000EF92FF920F931F937C010E941A0C8C015E
:101A5000C7010E94FA0B080F191FC8011F910F91AF
:101A6000FF90EF900895629FD001739FF001829FD5
:101A7000E00DF11D649FE00DF11D929FF00D839F1D
:101A8000F00D749FF00D659FF00D9927729FB00DBA
:101A9000E11DF91F639FB00DE11DF91FBD01CF01CD
:101AA0001124089597FB092E07260AD077FD04D04C
:101AB0002ED006D000201AF4709561957F4F0895BE
:101AC000F6F7909581959F4F0895A1E21A2EAA1BD3
:101AD000BB1BFD010DC0AA1FBB1FEE1FFF1FA217DE
:101AE000B307E407F50720F0A21BB30BE40BF50BDB
:101AF000661F771F881F991F1A9469F76095709564
:101B0000809590959B01AC01BD01CF010895AA1B62
:101B1000BB1B51E107C0AA1FBB1FA617B70710F0D8
:101B2000A61BB70B881F991F5A95A9F7809590950A
:101B3000BC01CD0108952F923F924F925F926F9218
:101B40007F928F929F92AF92BF92CF92DF92EF924D
:101B5000FF920F931F93CF93DF93CDB7DEB7CA1BCE
:101B6000DB0B0FB6F894DEBF0FBECDBF09942A88F9
:101B7000398848885F846E847D848C849B84AA84A1
:101B8000B984C884DF80EE80FD800C811B81AA812E
:101B9000B981CE0FD11D0FB6F894DEBF0FBECDBFF9
:101BA000ED010895EE0FFF1F0590F491E02D0994CB
:041BB000F894FFCFD7
:101BB4004973207468652064617461207261773FA1
:101BC4002000576861742069732074686520667208
:101BD400657175656E63793F2000486F77206D618C
:101BE4006E7920696E20746865206669727374204A
:101BF4006275727374207061747465726E3F200034
:101C0400486F77206D616E7920696E207468652055
:101C14007365636F6E64206275727374207061748F
:101C24007465726E3F2000547279696E672074681F
:101C3400652064696F6465206465746563746F729C
:101C44002E2E2E00496E76616C6964206B657921B5
:101C540000547279696E67207468652073696D70C9
:101C64006C65206465746563746F722E2E2E00504B
:101C740072657373203120666F7220706F7765729E
:101C84002C203220666F7220766F6C756D6520751E
:101C9400702C203320666F7220766F6C756D652012
:101CA400646F776E2C203420666F722073696D70B8
:101CB4006C6520746573742C203520666F72206403
:101CC400696F646520746573742C20616E79206F6C
:101CD40074686572206B657920666F72206E6F740C
:101CE40068696E672E2E2E000000000000000000C0
:101CF40000010202030303030404040404040404AF
:101D0400050505050505050505050505050505057F
:101D1400060606060606060606060606060606065F
:101D2400060606060606060606060606060606064F
:101D3400070707070707070707070707070707072F
:101D4400070707070707070707070707070707071F
:101D5400070707070707070707070707070707070F
:101D640007070707070707070707070707070707FF
:101D740008080808080808080808080808080808DF
:101D840008080808080808080808080808080808CF
:101D940008080808080808080808080808080808BF
:101DA40008080808080808080808080808080808AF
:101DB400080808080808080808080808080808089F
:101DC400080808080808080808080808080808088F
:101DD400080808080808080808080808080808087F
:101DE400080808080808080808080808080808086F
:101DF40000006D0022000300A900A80015003F00A8
:101E040015003F0015003F001500150015001500D2
:101E140015001500150015001500150015003F00EC
:101E240015003F0015003F001500150015001500B2
:101E340015001500150015001500150015001500F6
:101E440015003F00150015001500150015001500BC
:101E540015001500150015001500150015004000AB
:101E64001500150015003F0015003F0015003F0048
:101E740015003F0015003F0015003F001500020744
:101E8400A900A8001500150015006E0E00006D00D5
:101E940022000300A900A80015003F0015003F0020
:101EA40015003F001500150015001500150015005C
:101EB400150015001500150015003F0015003F0022
:101EC40015003F001500150015001500150015003C
:101ED400150015001500150015003F0015003F0002
:101EE40015003F001500150015001500150015001C
:101EF4001500150015001500150015001500150036
:101F04001500150015003F0015003F0015003F00A7
:101F140015003F0015003F0015000207A900A800A6
:101F24001500150015006E0E00006D002200030060
:101F3400A900A80015003F0015003F0015003F0050
:101F440015001500150015001500150015001500E5
:101F54001500150015003F0015003F0015003F0057
:101F640015001500150015001500150015001500C5
:101F74001500150015003F0015003F001500150061
:101F840015003F001500150015001500150015007B
:101F940015001500150015001500150015003F006B
:101FA4001500150015003F0015003F0015003F0007
:101FB40015003F0015000207A900A8001500150030
:101FC40015006E0E00000000440BD00BD80A090B5C
:041FD400E90A320BD9
:00000001FF
